{
  "contractName": "Voting",
  "abi": [
    {
      "inputs": [],
      "stateMutability": "nonpayable",
      "type": "constructor"
    },
    {
      "anonymous": false,
      "inputs": [
        {
          "indexed": false,
          "internalType": "uint256",
          "name": "candidateId",
          "type": "uint256"
        }
      ],
      "name": "AddCandidate",
      "type": "event"
    },
    {
      "anonymous": false,
      "inputs": [
        {
          "indexed": true,
          "internalType": "bytes32",
          "name": "role",
          "type": "bytes32"
        },
        {
          "indexed": true,
          "internalType": "bytes32",
          "name": "previousAdminRole",
          "type": "bytes32"
        },
        {
          "indexed": true,
          "internalType": "bytes32",
          "name": "newAdminRole",
          "type": "bytes32"
        }
      ],
      "name": "RoleAdminChanged",
      "type": "event"
    },
    {
      "anonymous": false,
      "inputs": [
        {
          "indexed": true,
          "internalType": "bytes32",
          "name": "role",
          "type": "bytes32"
        },
        {
          "indexed": true,
          "internalType": "address",
          "name": "account",
          "type": "address"
        },
        {
          "indexed": true,
          "internalType": "address",
          "name": "sender",
          "type": "address"
        }
      ],
      "name": "RoleGranted",
      "type": "event"
    },
    {
      "anonymous": false,
      "inputs": [
        {
          "indexed": true,
          "internalType": "bytes32",
          "name": "role",
          "type": "bytes32"
        },
        {
          "indexed": true,
          "internalType": "address",
          "name": "account",
          "type": "address"
        },
        {
          "indexed": true,
          "internalType": "address",
          "name": "sender",
          "type": "address"
        }
      ],
      "name": "RoleRevoked",
      "type": "event"
    },
    {
      "inputs": [],
      "name": "ADMIN_ROLE",
      "outputs": [
        {
          "internalType": "bytes32",
          "name": "",
          "type": "bytes32"
        }
      ],
      "stateMutability": "view",
      "type": "function"
    },
    {
      "inputs": [],
      "name": "DEFAULT_ADMIN_ROLE",
      "outputs": [
        {
          "internalType": "bytes32",
          "name": "",
          "type": "bytes32"
        }
      ],
      "stateMutability": "view",
      "type": "function"
    },
    {
      "inputs": [],
      "name": "USER_ROLE",
      "outputs": [
        {
          "internalType": "bytes32",
          "name": "",
          "type": "bytes32"
        }
      ],
      "stateMutability": "view",
      "type": "function"
    },
    {
      "inputs": [
        {
          "internalType": "bytes32",
          "name": "role",
          "type": "bytes32"
        }
      ],
      "name": "getRoleAdmin",
      "outputs": [
        {
          "internalType": "bytes32",
          "name": "",
          "type": "bytes32"
        }
      ],
      "stateMutability": "view",
      "type": "function"
    },
    {
      "inputs": [
        {
          "internalType": "bytes32",
          "name": "role",
          "type": "bytes32"
        },
        {
          "internalType": "address",
          "name": "account",
          "type": "address"
        }
      ],
      "name": "grantRole",
      "outputs": [],
      "stateMutability": "nonpayable",
      "type": "function"
    },
    {
      "inputs": [
        {
          "internalType": "bytes32",
          "name": "role",
          "type": "bytes32"
        },
        {
          "internalType": "address",
          "name": "account",
          "type": "address"
        }
      ],
      "name": "hasRole",
      "outputs": [
        {
          "internalType": "bool",
          "name": "",
          "type": "bool"
        }
      ],
      "stateMutability": "view",
      "type": "function"
    },
    {
      "inputs": [],
      "name": "owner",
      "outputs": [
        {
          "internalType": "address",
          "name": "",
          "type": "address"
        }
      ],
      "stateMutability": "view",
      "type": "function"
    },
    {
      "inputs": [
        {
          "internalType": "bytes32",
          "name": "role",
          "type": "bytes32"
        },
        {
          "internalType": "address",
          "name": "account",
          "type": "address"
        }
      ],
      "name": "renounceRole",
      "outputs": [],
      "stateMutability": "nonpayable",
      "type": "function"
    },
    {
      "inputs": [
        {
          "internalType": "bytes32",
          "name": "role",
          "type": "bytes32"
        },
        {
          "internalType": "address",
          "name": "account",
          "type": "address"
        }
      ],
      "name": "revokeRole",
      "outputs": [],
      "stateMutability": "nonpayable",
      "type": "function"
    },
    {
      "inputs": [
        {
          "internalType": "bytes4",
          "name": "interfaceId",
          "type": "bytes4"
        }
      ],
      "name": "supportsInterface",
      "outputs": [
        {
          "internalType": "bool",
          "name": "",
          "type": "bool"
        }
      ],
      "stateMutability": "view",
      "type": "function"
    },
    {
      "inputs": [],
      "name": "getNumOfCandidates",
      "outputs": [
        {
          "internalType": "uint256",
          "name": "",
          "type": "uint256"
        }
      ],
      "stateMutability": "view",
      "type": "function"
    },
    {
      "inputs": [],
      "name": "getNumOfVoters",
      "outputs": [
        {
          "internalType": "uint256",
          "name": "",
          "type": "uint256"
        }
      ],
      "stateMutability": "view",
      "type": "function"
    },
    {
      "inputs": [
        {
          "internalType": "uint256",
          "name": "cId",
          "type": "uint256"
        }
      ],
      "name": "getCandidate",
      "outputs": [
        {
          "internalType": "uint256",
          "name": "",
          "type": "uint256"
        },
        {
          "internalType": "string",
          "name": "",
          "type": "string"
        },
        {
          "internalType": "string",
          "name": "",
          "type": "string"
        }
      ],
      "stateMutability": "view",
      "type": "function"
    },
    {
      "inputs": [
        {
          "internalType": "uint256",
          "name": "cId",
          "type": "uint256"
        }
      ],
      "name": "totalVotes",
      "outputs": [
        {
          "internalType": "uint256",
          "name": "",
          "type": "uint256"
        }
      ],
      "stateMutability": "view",
      "type": "function"
    },
    {
      "inputs": [
        {
          "internalType": "address",
          "name": "user",
          "type": "address"
        }
      ],
      "name": "addUser",
      "outputs": [],
      "stateMutability": "nonpayable",
      "type": "function"
    },
    {
      "inputs": [
        {
          "internalType": "address",
          "name": "admin",
          "type": "address"
        }
      ],
      "name": "addAdmin",
      "outputs": [],
      "stateMutability": "nonpayable",
      "type": "function"
    },
    {
      "inputs": [
        {
          "internalType": "string",
          "name": "name",
          "type": "string"
        },
        {
          "internalType": "string",
          "name": "partyName",
          "type": "string"
        }
      ],
      "name": "addCandidate",
      "outputs": [],
      "stateMutability": "nonpayable",
      "type": "function"
    },
    {
      "inputs": [
        {
          "internalType": "bytes32",
          "name": "uId",
          "type": "bytes32"
        },
        {
          "internalType": "uint256",
          "name": "votedCandidateId",
          "type": "uint256"
        }
      ],
      "name": "vote",
      "outputs": [],
      "stateMutability": "nonpayable",
      "type": "function"
    }
  ],
  "bytecode": "0x608060405234801561001057600080fd5b5033600160006101000a81548173ffffffffffffffffffffffffffffffffffffffff021916908373ffffffffffffffffffffffffffffffffffffffff1602179055506114ae806100616000396000f3fe608060405234801561001057600080fd5b50600436106101165760003560e01c806365fc783c116100a257806391d148541161007157806391d14854146102e15780639ef1204c14610311578063a217fddf1461032d578063d547741f1461034b578063e8685ba11461036757610116565b806365fc783c1461026b578063704802751461028957806375b238fc146102a55780638da5cb5b146102c357610116565b806326541b56116100e957806326541b56146101c95780632f2ff15d146101e557806335b8e8201461020157806336568abe14610233578063421b2d8b1461024f57610116565b806301ffc9a71461011b578063131191611461014b57806319e6e15814610169578063248a9ca314610199575b600080fd5b61013560048036038101906101309190610e06565b610385565b6040516101429190610fbd565b60405180910390f35b6101536103ff565b6040516101609190610fd8565b60405180910390f35b610183600480360381019061017e9190610e9b565b610423565b6040516101909190611053565b60405180910390f35b6101b360048036038101906101ae9190610d65565b610481565b6040516101c09190610fd8565b60405180910390f35b6101e360048036038101906101de9190610e2f565b6104a0565b005b6101ff60048036038101906101fa9190610d8e565b61056e565b005b61021b60048036038101906102169190610e9b565b6105d4565b60405161022a9392919061106e565b60405180910390f35b61024d60048036038101906102489190610d8e565b61072b565b005b61026960048036038101906102649190610d3c565b6107ae565b005b6102736107db565b6040516102809190611053565b60405180910390f35b6102a3600480360381019061029e9190610d3c565b6107e5565b005b6102ad610812565b6040516102ba9190610fd8565b60405180910390f35b6102cb610836565b6040516102d89190610fa2565b60405180910390f35b6102fb60048036038101906102f69190610d8e565b61085c565b6040516103089190610fbd565b60405180910390f35b61032b60048036038101906103269190610dca565b6108c6565b005b610335610925565b6040516103429190610fd8565b60405180910390f35b61036560048036038101906103609190610d8e565b61092c565b005b61036f610992565b60405161037c9190611053565b60405180910390f35b60007f7965db0b000000000000000000000000000000000000000000000000000000007bffffffffffffffffffffffffffffffffffffffffffffffffffffffff1916827bffffffffffffffffffffffffffffffffffffffffffffffffffffffff191614806103f857506103f78261099c565b5b9050919050565b7f14823911f2da1b49f045a0929a60b8c1f2a7fc8c06c7284ca3e8ab4e193a08c881565b6000806000905060005b60035481101561047757836005600083815260200190815260200160002060010154141561046457818061046090611248565b9250505b808061046f90611248565b91505061042d565b5080915050919050565b6000806000838152602001908152602001600020600101549050919050565b60405180606001604052806006548152602001838152602001828152506004600060065481526020019081526020016000206000820151816000015560208201518160010190805190602001906104f8929190610bdd565b506040820151816002019080519060200190610515929190610bdd565b509050506006600081548092919061052c90611248565b91905055507f777fd7cc2d56d24ad499059c7477d5721244e36ce46e0dac54a339c3578906d86006546040516105629190611053565b60405180910390a15050565b61058761057a83610481565b610582610a06565b61085c565b6105c6576040517f08c379a00000000000000000000000000000000000000000000000000000000081526004016105bd90610ff3565b60405180910390fd5b6105d08282610a0e565b5050565b6000606080836004600086815260200190815260200160002060010160046000878152602001908152602001600020600201818054610612906111e5565b80601f016020809104026020016040519081016040528092919081815260200182805461063e906111e5565b801561068b5780601f106106605761010080835404028352916020019161068b565b820191906000526020600020905b81548152906001019060200180831161066e57829003601f168201915b5050505050915080805461069e906111e5565b80601f01602080910402602001604051908101604052809291908181526020018280546106ca906111e5565b80156107175780601f106106ec57610100808354040283529160200191610717565b820191906000526020600020905b8154815290600101906020018083116106fa57829003601f168201915b505050505090509250925092509193909250565b610733610a06565b73ffffffffffffffffffffffffffffffffffffffff168173ffffffffffffffffffffffffffffffffffffffff16146107a0576040517f08c379a000000000000000000000000000000000000000000000000000000000815260040161079790611033565b60405180910390fd5b6107aa8282610aee565b5050565b6107d87f14823911f2da1b49f045a0929a60b8c1f2a7fc8c06c7284ca3e8ab4e193a08c882610bcf565b50565b6000600354905090565b61080f7fa49807205ce4d355092ef5a8a18f56e8913cf4a201fbe287825b095693c2177582610bcf565b50565b7fa49807205ce4d355092ef5a8a18f56e8913cf4a201fbe287825b095693c2177581565b600160009054906101000a900473ffffffffffffffffffffffffffffffffffffffff1681565b600080600084815260200190815260200160002060000160008373ffffffffffffffffffffffffffffffffffffffff1673ffffffffffffffffffffffffffffffffffffffff16815260200190815260200160002060009054906101000a900460ff16905092915050565b6000600360008154809291906108db90611248565b919050559050604051806040016040528084815260200183815250600560008381526020019081526020016000206000820151816000015560208201518160010155905050505050565b6000801b81565b61094561093883610481565b610940610a06565b61085c565b610984576040517f08c379a000000000000000000000000000000000000000000000000000000000815260040161097b90611013565b60405180910390fd5b61098e8282610aee565b5050565b6000600254905090565b60007f01ffc9a7000000000000000000000000000000000000000000000000000000007bffffffffffffffffffffffffffffffffffffffffffffffffffffffff1916827bffffffffffffffffffffffffffffffffffffffffffffffffffffffff1916149050919050565b600033905090565b610a18828261085c565b610aea57600160008084815260200190815260200160002060000160008373ffffffffffffffffffffffffffffffffffffffff1673ffffffffffffffffffffffffffffffffffffffff16815260200190815260200160002060006101000a81548160ff021916908315150217905550610a8f610a06565b73ffffffffffffffffffffffffffffffffffffffff168173ffffffffffffffffffffffffffffffffffffffff16837f2f8788117e7eff1d82e926ec794901d17c78024a50270940304540a733656f0d60405160405180910390a45b5050565b610af8828261085c565b15610bcb57600080600084815260200190815260200160002060000160008373ffffffffffffffffffffffffffffffffffffffff1673ffffffffffffffffffffffffffffffffffffffff16815260200190815260200160002060006101000a81548160ff021916908315150217905550610b70610a06565b73ffffffffffffffffffffffffffffffffffffffff168173ffffffffffffffffffffffffffffffffffffffff16837ff6391f5c32d9c69d2a47ea670b442974b53935d1edc7fd64eb21e047a839171b60405160405180910390a45b5050565b610bd98282610a0e565b5050565b828054610be9906111e5565b90600052602060002090601f016020900481019282610c0b5760008555610c52565b82601f10610c2457805160ff1916838001178555610c52565b82800160010185558215610c52579182015b82811115610c51578251825591602001919060010190610c36565b5b509050610c5f9190610c63565b5090565b5b80821115610c7c576000816000905550600101610c64565b5090565b6000610c93610c8e846110d8565b6110b3565b905082815260208101848484011115610cab57600080fd5b610cb68482856111a3565b509392505050565b600081359050610ccd8161141c565b92915050565b600081359050610ce281611433565b92915050565b600081359050610cf78161144a565b92915050565b600082601f830112610d0e57600080fd5b8135610d1e848260208601610c80565b91505092915050565b600081359050610d3681611461565b92915050565b600060208284031215610d4e57600080fd5b6000610d5c84828501610cbe565b91505092915050565b600060208284031215610d7757600080fd5b6000610d8584828501610cd3565b91505092915050565b60008060408385031215610da157600080fd5b6000610daf85828601610cd3565b9250506020610dc085828601610cbe565b9150509250929050565b60008060408385031215610ddd57600080fd5b6000610deb85828601610cd3565b9250506020610dfc85828601610d27565b9150509250929050565b600060208284031215610e1857600080fd5b6000610e2684828501610ce8565b91505092915050565b60008060408385031215610e4257600080fd5b600083013567ffffffffffffffff811115610e5c57600080fd5b610e6885828601610cfd565b925050602083013567ffffffffffffffff811115610e8557600080fd5b610e9185828601610cfd565b9150509250929050565b600060208284031215610ead57600080fd5b6000610ebb84828501610d27565b91505092915050565b610ecd81611125565b82525050565b610edc81611137565b82525050565b610eeb81611143565b82525050565b6000610efc82611109565b610f068185611114565b9350610f168185602086016111b2565b610f1f8161131e565b840191505092915050565b6000610f37602f83611114565b9150610f428261132f565b604082019050919050565b6000610f5a603083611114565b9150610f658261137e565b604082019050919050565b6000610f7d602f83611114565b9150610f88826113cd565b604082019050919050565b610f9c81611199565b82525050565b6000602082019050610fb76000830184610ec4565b92915050565b6000602082019050610fd26000830184610ed3565b92915050565b6000602082019050610fed6000830184610ee2565b92915050565b6000602082019050818103600083015261100c81610f2a565b9050919050565b6000602082019050818103600083015261102c81610f4d565b9050919050565b6000602082019050818103600083015261104c81610f70565b9050919050565b60006020820190506110686000830184610f93565b92915050565b60006060820190506110836000830186610f93565b81810360208301526110958185610ef1565b905081810360408301526110a98184610ef1565b9050949350505050565b60006110bd6110ce565b90506110c98282611217565b919050565b6000604051905090565b600067ffffffffffffffff8211156110f3576110f26112ef565b5b6110fc8261131e565b9050602081019050919050565b600081519050919050565b600082825260208201905092915050565b600061113082611179565b9050919050565b60008115159050919050565b6000819050919050565b60007fffffffff0000000000000000000000000000000000000000000000000000000082169050919050565b600073ffffffffffffffffffffffffffffffffffffffff82169050919050565b6000819050919050565b82818337600083830152505050565b60005b838110156111d05780820151818401526020810190506111b5565b838111156111df576000848401525b50505050565b600060028204905060018216806111fd57607f821691505b60208210811415611211576112106112c0565b5b50919050565b6112208261131e565b810181811067ffffffffffffffff8211171561123f5761123e6112ef565b5b80604052505050565b600061125382611199565b91507fffffffffffffffffffffffffffffffffffffffffffffffffffffffffffffffff82141561128657611285611291565b5b600182019050919050565b7f4e487b7100000000000000000000000000000000000000000000000000000000600052601160045260246000fd5b7f4e487b7100000000000000000000000000000000000000000000000000000000600052602260045260246000fd5b7f4e487b7100000000000000000000000000000000000000000000000000000000600052604160045260246000fd5b6000601f19601f8301169050919050565b7f416363657373436f6e74726f6c3a2073656e646572206d75737420626520616e60008201527f2061646d696e20746f206772616e740000000000000000000000000000000000602082015250565b7f416363657373436f6e74726f6c3a2073656e646572206d75737420626520616e60008201527f2061646d696e20746f207265766f6b6500000000000000000000000000000000602082015250565b7f416363657373436f6e74726f6c3a2063616e206f6e6c792072656e6f756e636560008201527f20726f6c657320666f722073656c660000000000000000000000000000000000602082015250565b61142581611125565b811461143057600080fd5b50565b61143c81611143565b811461144757600080fd5b50565b6114538161114d565b811461145e57600080fd5b50565b61146a81611199565b811461147557600080fd5b5056fea2646970667358221220bfd2151653b02fa40039b35abedc49ed7346cceecd9ff87ad042f9caee2f86e964736f6c63430008030033",
  "immutableReferences": {},
  "source": "// SPDX-License-Identifier: MIT\r\npragma solidity ^0.8.1;\r\n\r\nimport '@openzeppelin/contracts/access/AccessControl.sol';\r\n//import './ERC721Token.sol';\r\n\r\ncontract Voting is AccessControl{\r\n    \r\n    event AddCandidate(uint candidateId);\r\n    bytes32 public constant USER_ROLE = keccak256(\"USER_ROLE\");\r\n    bytes32 public constant ADMIN_ROLE = keccak256(\"ADMIN_ROLE\");\r\n    address public owner;\r\n    constructor(){\r\n        owner = msg.sender;\r\n    }\r\n    modifier onlyOwner{\r\n        require(msg.sender == owner,\"Sender is not contract owner\");\r\n        _;\r\n    }\r\n    struct Voter{\r\n        bytes32 uId;\r\n        uint votedCandidateId;        \r\n    }\r\n    struct Candidate{\r\n        uint256 id;\r\n        string name;\r\n        string partyName;\r\n    }\r\n    uint numOfCandidates;\r\n    uint numOfVoters;\r\n    mapping (uint256 => Candidate) candidates;\r\n    mapping (uint => Voter) voters;\r\n    uint256 private nextId;    \r\n\r\n    function getNumOfCandidates() public view returns(uint){\r\n        return numOfCandidates;\r\n    }\r\n    function getNumOfVoters() public view returns(uint){\r\n        return numOfVoters;\r\n    }\r\n    function getCandidate(uint cId) public view returns(uint,string memory,string memory){\r\n        return (cId,candidates[cId].name,candidates[cId].partyName);\r\n    }\r\n    function totalVotes(uint cId) public view returns(uint){\r\n        uint total=0;\r\n        for(uint i = 0; i <numOfVoters ; i++){\r\n            if(voters[i].votedCandidateId == cId){\r\n                total++;\r\n            }\r\n        }\r\n        return total;\r\n    }\r\n\r\n    function addUser(address user) public{\r\n        super._setupRole(USER_ROLE, user);\r\n    }\r\n    function addAdmin(address admin) public{\r\n        super._setupRole(ADMIN_ROLE, admin);\r\n    }\r\n    function addCandidate(string memory name, string memory partyName) public{\r\n        //super._mint(msg.sender, nextId);\r\n        candidates[nextId] = Candidate(nextId,name,partyName);\r\n        nextId++;\r\n        emit AddCandidate(nextId);        \r\n    }\r\n    function vote(bytes32 uId,uint votedCandidateId) public{\r\n        uint voterId = numOfVoters++;\r\n        voters[voterId] = Voter(uId,votedCandidateId);\r\n    }\r\n}",
  "sourcePath": "C:/Work/Blockchain_course/semester2/DappII/final_project/smart_contract/contracts/Voting.sol",
  "compiler": {
    "name": "solc",
    "version": "0.8.3+commit.8d00100c.Emscripten.clang"
  },
  "schemaVersion": "3.3.3",
  "updatedAt": "2021-04-19T23:31:24.462Z",
  "devdoc": {
    "kind": "dev",
    "methods": {
      "getRoleAdmin(bytes32)": {
        "details": "Returns the admin role that controls `role`. See {grantRole} and {revokeRole}. To change a role's admin, use {_setRoleAdmin}."
      },
      "grantRole(bytes32,address)": {
        "details": "Grants `role` to `account`. If `account` had not been already granted `role`, emits a {RoleGranted} event. Requirements: - the caller must have ``role``'s admin role."
      },
      "hasRole(bytes32,address)": {
        "details": "Returns `true` if `account` has been granted `role`."
      },
      "renounceRole(bytes32,address)": {
        "details": "Revokes `role` from the calling account. Roles are often managed via {grantRole} and {revokeRole}: this function's purpose is to provide a mechanism for accounts to lose their privileges if they are compromised (such as when a trusted device is misplaced). If the calling account had been granted `role`, emits a {RoleRevoked} event. Requirements: - the caller must be `account`."
      },
      "revokeRole(bytes32,address)": {
        "details": "Revokes `role` from `account`. If `account` had been granted `role`, emits a {RoleRevoked} event. Requirements: - the caller must have ``role``'s admin role."
      },
      "supportsInterface(bytes4)": {
        "details": "See {IERC165-supportsInterface}."
      }
    },
    "version": 1
  },
  "userdoc": {
    "kind": "user",
    "methods": {},
    "version": 1
  }
}